{
  "_format": "hh3-artifact-1",
  "contractName": "AnonymousPool",
  "sourceName": "contracts/AnonymousPool.sol",
  "abi": [
    {
      "inputs": [
        {
          "internalType": "uint32",
          "name": "_depth",
          "type": "uint32"
        },
        {
          "internalType": "contract SimplifiedPoseidon",
          "name": "_poseidon",
          "type": "address"
        }
      ],
      "stateMutability": "nonpayable",
      "type": "constructor"
    },
    {
      "inputs": [],
      "name": "DuplicateCommitment",
      "type": "error"
    },
    {
      "inputs": [],
      "name": "IndexOutOfBounds",
      "type": "error"
    },
    {
      "inputs": [],
      "name": "InsufficientTokenBalance",
      "type": "error"
    },
    {
      "inputs": [],
      "name": "InvalidDepositAmount",
      "type": "error"
    },
    {
      "inputs": [],
      "name": "InvalidDepth",
      "type": "error"
    },
    {
      "inputs": [],
      "name": "InvalidProof",
      "type": "error"
    },
    {
      "inputs": [],
      "name": "InvalidRecipient",
      "type": "error"
    },
    {
      "inputs": [],
      "name": "InvalidToken",
      "type": "error"
    },
    {
      "inputs": [],
      "name": "MerkleTreeFull",
      "type": "error"
    },
    {
      "inputs": [],
      "name": "NotEnoughBalance",
      "type": "error"
    },
    {
      "inputs": [],
      "name": "NullifierAlreadyUsed",
      "type": "error"
    },
    {
      "inputs": [],
      "name": "TransferFailed",
      "type": "error"
    },
    {
      "anonymous": false,
      "inputs": [
        {
          "indexed": true,
          "internalType": "bytes32",
          "name": "commitment",
          "type": "bytes32"
        },
        {
          "indexed": false,
          "internalType": "uint32",
          "name": "leafIndex",
          "type": "uint32"
        },
        {
          "indexed": true,
          "internalType": "address",
          "name": "from",
          "type": "address"
        },
        {
          "indexed": false,
          "internalType": "uint256",
          "name": "timestamp",
          "type": "uint256"
        }
      ],
      "name": "Deposit",
      "type": "event"
    },
    {
      "anonymous": false,
      "inputs": [
        {
          "indexed": true,
          "internalType": "uint32",
          "name": "leafIndex",
          "type": "uint32"
        },
        {
          "indexed": true,
          "internalType": "bytes32",
          "name": "leaf",
          "type": "bytes32"
        },
        {
          "indexed": false,
          "internalType": "bytes32",
          "name": "root",
          "type": "bytes32"
        }
      ],
      "name": "LeafInserted",
      "type": "event"
    },
    {
      "anonymous": false,
      "inputs": [
        {
          "indexed": true,
          "internalType": "address",
          "name": "token",
          "type": "address"
        },
        {
          "indexed": true,
          "internalType": "address",
          "name": "to",
          "type": "address"
        },
        {
          "indexed": false,
          "internalType": "bytes32",
          "name": "nullifierHash",
          "type": "bytes32"
        },
        {
          "indexed": false,
          "internalType": "uint256",
          "name": "amount",
          "type": "uint256"
        }
      ],
      "name": "TokenWithdrawal",
      "type": "event"
    },
    {
      "anonymous": false,
      "inputs": [
        {
          "indexed": true,
          "internalType": "address",
          "name": "to",
          "type": "address"
        },
        {
          "indexed": false,
          "internalType": "bytes32",
          "name": "nullifierHash",
          "type": "bytes32"
        },
        {
          "indexed": true,
          "internalType": "address",
          "name": "relayer",
          "type": "address"
        },
        {
          "indexed": false,
          "internalType": "uint256",
          "name": "fee",
          "type": "uint256"
        }
      ],
      "name": "Withdrawal",
      "type": "event"
    },
    {
      "inputs": [],
      "name": "DEPOSIT_AMOUNT",
      "outputs": [
        {
          "internalType": "uint256",
          "name": "",
          "type": "uint256"
        }
      ],
      "stateMutability": "view",
      "type": "function"
    },
    {
      "inputs": [],
      "name": "FEE",
      "outputs": [
        {
          "internalType": "uint256",
          "name": "",
          "type": "uint256"
        }
      ],
      "stateMutability": "view",
      "type": "function"
    },
    {
      "inputs": [],
      "name": "FIELD_SIZE",
      "outputs": [
        {
          "internalType": "uint256",
          "name": "",
          "type": "uint256"
        }
      ],
      "stateMutability": "view",
      "type": "function"
    },
    {
      "inputs": [],
      "name": "ROOT_HISTORY_SIZE",
      "outputs": [
        {
          "internalType": "uint32",
          "name": "",
          "type": "uint32"
        }
      ],
      "stateMutability": "view",
      "type": "function"
    },
    {
      "inputs": [
        {
          "internalType": "bytes32",
          "name": "",
          "type": "bytes32"
        }
      ],
      "name": "commitments",
      "outputs": [
        {
          "internalType": "bool",
          "name": "",
          "type": "bool"
        }
      ],
      "stateMutability": "view",
      "type": "function"
    },
    {
      "inputs": [],
      "name": "currentRootIndex",
      "outputs": [
        {
          "internalType": "uint32",
          "name": "",
          "type": "uint32"
        }
      ],
      "stateMutability": "view",
      "type": "function"
    },
    {
      "inputs": [
        {
          "internalType": "bytes32",
          "name": "_commitment",
          "type": "bytes32"
        }
      ],
      "name": "deposit",
      "outputs": [],
      "stateMutability": "payable",
      "type": "function"
    },
    {
      "inputs": [],
      "name": "depth",
      "outputs": [
        {
          "internalType": "uint32",
          "name": "",
          "type": "uint32"
        }
      ],
      "stateMutability": "view",
      "type": "function"
    },
    {
      "inputs": [],
      "name": "feeCollector",
      "outputs": [
        {
          "internalType": "address",
          "name": "",
          "type": "address"
        }
      ],
      "stateMutability": "view",
      "type": "function"
    },
    {
      "inputs": [
        {
          "internalType": "uint256",
          "name": "",
          "type": "uint256"
        }
      ],
      "name": "filledSubtrees",
      "outputs": [
        {
          "internalType": "bytes32",
          "name": "",
          "type": "bytes32"
        }
      ],
      "stateMutability": "view",
      "type": "function"
    },
    {
      "inputs": [
        {
          "internalType": "bytes32",
          "name": "_secret",
          "type": "bytes32"
        },
        {
          "internalType": "bytes32",
          "name": "_nullifier",
          "type": "bytes32"
        }
      ],
      "name": "generateCommitment",
      "outputs": [
        {
          "internalType": "bytes32",
          "name": "",
          "type": "bytes32"
        }
      ],
      "stateMutability": "view",
      "type": "function"
    },
    {
      "inputs": [
        {
          "internalType": "bytes32",
          "name": "_nullifier",
          "type": "bytes32"
        }
      ],
      "name": "generateNullifierHash",
      "outputs": [
        {
          "internalType": "bytes32",
          "name": "",
          "type": "bytes32"
        }
      ],
      "stateMutability": "view",
      "type": "function"
    },
    {
      "inputs": [],
      "name": "getLatestRoot",
      "outputs": [
        {
          "internalType": "bytes32",
          "name": "",
          "type": "bytes32"
        }
      ],
      "stateMutability": "view",
      "type": "function"
    },
    {
      "inputs": [],
      "name": "getStats",
      "outputs": [
        {
          "internalType": "uint256",
          "name": "poolBalance",
          "type": "uint256"
        },
        {
          "internalType": "uint256",
          "name": "deposits",
          "type": "uint256"
        },
        {
          "internalType": "uint256",
          "name": "withdrawals",
          "type": "uint256"
        },
        {
          "internalType": "uint256",
          "name": "anonymitySet",
          "type": "uint256"
        }
      ],
      "stateMutability": "view",
      "type": "function"
    },
    {
      "inputs": [
        {
          "internalType": "bytes32",
          "name": "_leaf",
          "type": "bytes32"
        }
      ],
      "name": "insertLeaf",
      "outputs": [
        {
          "internalType": "uint32",
          "name": "",
          "type": "uint32"
        }
      ],
      "stateMutability": "nonpayable",
      "type": "function"
    },
    {
      "inputs": [
        {
          "internalType": "bytes32",
          "name": "_root",
          "type": "bytes32"
        }
      ],
      "name": "isKnownRoot",
      "outputs": [
        {
          "internalType": "bool",
          "name": "",
          "type": "bool"
        }
      ],
      "stateMutability": "view",
      "type": "function"
    },
    {
      "inputs": [],
      "name": "nextLeafIndex",
      "outputs": [
        {
          "internalType": "uint32",
          "name": "",
          "type": "uint32"
        }
      ],
      "stateMutability": "view",
      "type": "function"
    },
    {
      "inputs": [
        {
          "internalType": "bytes32",
          "name": "",
          "type": "bytes32"
        }
      ],
      "name": "nullifierHashes",
      "outputs": [
        {
          "internalType": "bool",
          "name": "",
          "type": "bool"
        }
      ],
      "stateMutability": "view",
      "type": "function"
    },
    {
      "inputs": [],
      "name": "poseidonHasher",
      "outputs": [
        {
          "internalType": "contract SimplifiedPoseidon",
          "name": "",
          "type": "address"
        }
      ],
      "stateMutability": "view",
      "type": "function"
    },
    {
      "inputs": [
        {
          "internalType": "uint256",
          "name": "",
          "type": "uint256"
        }
      ],
      "name": "roots",
      "outputs": [
        {
          "internalType": "bytes32",
          "name": "",
          "type": "bytes32"
        }
      ],
      "stateMutability": "view",
      "type": "function"
    },
    {
      "inputs": [],
      "name": "totalDeposits",
      "outputs": [
        {
          "internalType": "uint256",
          "name": "",
          "type": "uint256"
        }
      ],
      "stateMutability": "view",
      "type": "function"
    },
    {
      "inputs": [],
      "name": "totalWithdrawals",
      "outputs": [
        {
          "internalType": "uint256",
          "name": "",
          "type": "uint256"
        }
      ],
      "stateMutability": "view",
      "type": "function"
    },
    {
      "inputs": [
        {
          "internalType": "address",
          "name": "_newCollector",
          "type": "address"
        }
      ],
      "name": "updateFeeCollector",
      "outputs": [],
      "stateMutability": "nonpayable",
      "type": "function"
    },
    {
      "inputs": [
        {
          "internalType": "bytes32",
          "name": "_nullifierHash",
          "type": "bytes32"
        },
        {
          "internalType": "address payable",
          "name": "_recipient",
          "type": "address"
        },
        {
          "internalType": "bytes32",
          "name": "_root",
          "type": "bytes32"
        },
        {
          "internalType": "address payable",
          "name": "_relayer",
          "type": "address"
        }
      ],
      "name": "withdraw",
      "outputs": [],
      "stateMutability": "nonpayable",
      "type": "function"
    },
    {
      "inputs": [],
      "name": "withdrawFees",
      "outputs": [],
      "stateMutability": "nonpayable",
      "type": "function"
    },
    {
      "inputs": [
        {
          "internalType": "bytes32",
          "name": "_nullifierHash",
          "type": "bytes32"
        },
        {
          "internalType": "address",
          "name": "_recipient",
          "type": "address"
        },
        {
          "internalType": "bytes32",
          "name": "_root",
          "type": "bytes32"
        },
        {
          "internalType": "address",
          "name": "_token",
          "type": "address"
        },
        {
          "internalType": "uint256",
          "name": "_amount",
          "type": "uint256"
        }
      ],
      "name": "withdrawTokens",
      "outputs": [],
      "stateMutability": "nonpayable",
      "type": "function"
    },
    {
      "inputs": [
        {
          "internalType": "uint256",
          "name": "level",
          "type": "uint256"
        }
      ],
      "name": "zeros",
      "outputs": [
        {
          "internalType": "bytes32",
          "name": "",
          "type": "bytes32"
        }
      ],
      "stateMutability": "pure",
      "type": "function"
    }
  ],
  "bytecode": "0x60c0604052600280546001600160401b031916905534801562000020575f80fd5b50604051620019f9380380620019f983398101604081905262000043916200035c565b818163ffffffff821615806200005f575060208263ffffffff16115b156200007e57604051630a0b2c3560e41b815260040160405180910390fd5b63ffffffff821660a0526001600160a01b0381166080525f5b8263ffffffff168163ffffffff161015620000db57620000bd63ffffffff821662000134565b63ffffffff82165f9081526020819052604090205560010162000097565b50620000ed63ffffffff831662000134565b5f805260016020527fa6eef7e35abe7026729641147f7915573c7e97b47efa546f5f6e3230263bcb49555050600580546001600160a01b0319163317905550620003aa9050565b5f815f036200016457507f0d823319708ab99ec915efd4f7e03d11ca1790918e8f04cd14100aceca2aa9ff919050565b816001036200019457507f2fe54c60d3acabf3343a35b6eba15db4821b340f76e741e2249685ed4899af6c919050565b81600203620001c457507f256a6135777eee2fd26f54b8b7037a25439d5235caee224154186d2b8a52e31d919050565b81600303620001f457507f1151949895e82ab19924de92c40a3d6f7bcb60d92b00504b8199613683f0c200919050565b816004036200022457507f20121ee811489ff8d61f09fb89e313f14959a0f28bb428a20dba6b0b068b3bdb919050565b816005036200025457507f0a89ca6ffa14cc462cfedb842c30ed221a50a3d6bf022a6a57dc82ab24c157c9919050565b816006036200028457507f24ca05c2b5cd42e890d6be94c68d0689f4f21c9cec9c0f13fe41d566dfb54959919050565b81600703620002b457507f1ccb97c932565a92c60156bdba2d08f3bf1377464e025cee765679e604a7315c919050565b81600803620002e457507f19156fbd7d1a8bf5cba8909367de1b624534ebab4f0f79e003bccdd1b182bdb4919050565b816009036200031457507f261af8c1f0912e465744641409f622d466c3920ac6e5ff37e36604cb11dfff80919050565b81600a036200034357507e58459724ff6ca5a1652fcbc3e82b93895cf08e975b19beab3f54c217d1c007919050565b604051634e23d03560e01b815260040160405180910390fd5b5f80604083850312156200036e575f80fd5b825163ffffffff8116811462000382575f80fd5b60208401519092506001600160a01b03811681146200039f575f80fd5b809150509250929050565b60805160a05161160a620003ef5f395f818161038101528181610bab0152610c0301525f818161026601528181610b1501528181610cb40152610f68015261160a5ff3fe608060405260043610610195575f3560e01c80637d882097116100e7578063c59d484711610087578063d2c35ce811610062578063d2c35ce814610516578063e829558814610535578063ec6925a714610554578063f178e47c1461056e575f80fd5b8063c59d484714610497578063cba843e2146104e3578063cd87a3b414610502575f80fd5b8063b214faa5116100c2578063b214faa514610421578063c2b40ae414610434578063c415b95c1461045f578063c57981b51461047e575f80fd5b80637d882097146103c2578063839df945146103d757806390eeb02b14610405575f80fd5b8063476343ee116101525780635c8b80ab1161012d5780635c8b80ab1461033c578063604646271461035b578063631c56ef146103705780636d9833e3146103a3575f80fd5b8063476343ee146102e15780634c05d051146102f55780635445b00714610314575f80fd5b80630be4f4221461019957806317cc915c146101d75780632cf369f1146102155780632deacd0414610236578063331b6ab314610255578063414a37ba146102a0575b5f80fd5b3480156101a4575f80fd5b506002546101bd90640100000000900463ffffffff1681565b60405163ffffffff90911681526020015b60405180910390f35b3480156101e2575f80fd5b506102056101f136600461126b565b60036020525f908152604090205460ff1681565b60405190151581526020016101ce565b348015610220575f80fd5b5061023461022f366004611299565b610599565b005b348015610241575f80fd5b506102346102503660046112e7565b610802565b348015610260575f80fd5b506102887f000000000000000000000000000000000000000000000000000000000000000081565b6040516001600160a01b0390911681526020016101ce565b3480156102ab575f80fd5b506102d37f30644e72e131a029b85045b68181585d2833e84879b9709143e1f593f000000181565b6040519081526020016101ce565b3480156102ec575f80fd5b50610234610a27565b348015610300575f80fd5b506102d361030f36600461132e565b610af6565b34801561031f575f80fd5b5060025463ffffffff165f908152600160205260409020546102d3565b348015610347575f80fd5b506101bd61035636600461126b565b610b8f565b348015610366575f80fd5b506102d360075481565b34801561037b575f80fd5b506101bd7f000000000000000000000000000000000000000000000000000000000000000081565b3480156103ae575f80fd5b506102056103bd36600461126b565b610dfe565b3480156103cd575f80fd5b506102d360065481565b3480156103e2575f80fd5b506102056103f136600461126b565b60046020525f908152604090205460ff1681565b348015610410575f80fd5b506002546101bd9063ffffffff1681565b61023461042f36600461126b565b610e75565b34801561043f575f80fd5b506102d361044e36600461126b565b60016020525f908152604090205481565b34801561046a575f80fd5b50600554610288906001600160a01b031681565b348015610489575f80fd5b506102d3655af3107a400081565b3480156104a2575f80fd5b506104c3600654600754600254479364010000000090910463ffffffff1690565b6040805194855260208501939093529183015260608201526080016101ce565b3480156104ee575f80fd5b506102d36104fd36600461126b565b610f49565b34801561050d575f80fd5b506101bd601e81565b348015610521575f80fd5b5061023461053036600461134e565b610fd9565b348015610540575f80fd5b506102d361054f36600461126b565b61104e565b34801561055f575f80fd5b506102d366038d7ea4c6800081565b348015610579575f80fd5b506102d361058836600461126b565b5f6020819052908152604090205481565b6001600160a01b0384166105c057604051634e46966960e11b815260040160405180910390fd5b6001600160a01b0382166105e75760405163c1ab6dc160e01b815260040160405180910390fd5b805f036106075760405163fe9ba5cd60e01b815260040160405180910390fd5b5f8581526003602052604090205460ff161561063657604051636569570160e11b815260040160405180910390fd5b61063f83610dfe565b61065c576040516309bde33960e01b815260040160405180910390fd5b5f858152600360205260408120805460ff19166001179055600780549161068283611384565b90915550506040516370a0823160e01b8152306004820152829082906001600160a01b038316906370a0823190602401602060405180830381865afa1580156106cd573d5f803e3d5ffd5b505050506040513d601f19601f820116820180604052508101906106f1919061139c565b101561071057604051637222ae5760e11b815260040160405180910390fd5b60405163a9059cbb60e01b81526001600160a01b038681166004830152602482018490525f919083169063a9059cbb906044016020604051808303815f875af115801561075f573d5f803e3d5ffd5b505050506040513d601f19601f8201168201806040525081019061078391906113b3565b9050806107a3576040516312171d8360e31b815260040160405180910390fd5b856001600160a01b0316846001600160a01b03167f6ecd0db881a0e170c74ce8dcadb93c6d83786f1ba57830885845dffc02d88ebf89866040516107f1929190918252602082015260400190565b60405180910390a350505050505050565b6001600160a01b03831661082957604051634e46966960e11b815260040160405180910390fd5b5f8481526003602052604090205460ff161561085857604051636569570160e11b815260040160405180910390fd5b61086182610dfe565b61087e576040516309bde33960e01b815260040160405180910390fd5b5f848152600360205260408120805460ff1916600117905560078054916108a483611384565b909155505f90506108c2655af3107a400066038d7ea4c680006113d2565b90505f6001600160a01b038316156108f4576108e56002655af3107a40006113f9565b90506108f181836113d2565b91505b5f856001600160a01b0316836040515f6040518083038185875af1925050503d805f811461093d576040519150601f19603f3d011682016040523d82523d5f602084013e610942565b606091505b5050905080610964576040516312171d8360e31b815260040160405180910390fd5b81156109d9576040516001600160a01b0385169083905f81818185875af1925050503d805f81146109b0576040519150601f19603f3d011682016040523d82523d5f602084013e6109b5565b606091505b505080915050806109d9576040516312171d8360e31b815260040160405180910390fd5b836001600160a01b0316866001600160a01b03167fe9e508bad6d4c3227e881ca19068f099da81b5164dd6d62b2eaf1e8bc6c3493189856040516107f1929190918252602082015260400190565b60075460065447915f9166038d7ea4c6800091610a43916113d2565b610a4d919061140c565b9050808211610a6f5760405163569d45cf60e11b815260040160405180910390fd5b5f610a7a82846113d2565b6005546040519192505f916001600160a01b039091169083908381818185875af1925050503d805f8114610ac9576040519150601f19603f3d011682016040523d82523d5f602084013e610ace565b606091505b5050905080610af0576040516312171d8360e31b815260040160405180910390fd5b50505050565b604051631c5f941760e11b815260048101839052602481018290525f907f00000000000000000000000000000000000000000000000000000000000000006001600160a01b0316906338bf282e90604401602060405180830381865afa158015610b62573d5f803e3d5ffd5b505050506040513d601f19601f82011682018060405250810190610b86919061139c565b90505b92915050565b600280545f9164010000000090910463ffffffff1690610bd0907f000000000000000000000000000000000000000000000000000000000000000090611532565b63ffffffff168163ffffffff1610610bfb576040516377ae67b360e11b815260040160405180910390fd5b80835f80805b7f000000000000000000000000000000000000000000000000000000000000000063ffffffff168163ffffffff161015610d3c57610c4060028661154e565b63ffffffff165f03610c7c57839250610c5e8163ffffffff1661104e565b63ffffffff82165f9081526020819052604090208590559150610c97565b63ffffffff81165f9081526020819052604090205492508391505b604051631c5f941760e11b815260048101849052602481018390527f00000000000000000000000000000000000000000000000000000000000000006001600160a01b0316906338bf282e90604401602060405180830381865afa158015610d01573d5f803e3d5ffd5b505050506040513d601f19601f82011682018060405250810190610d25919061139c565b9350610d32600286611570565b9450600101610c01565b506002545f90601e90610d569063ffffffff166001611592565b610d60919061154e565b6002805463ffffffff191663ffffffff83169081179091555f908152600160208190526040909120869055909150610d99908790611592565b6002805467ffffffff00000000191664010000000063ffffffff9384160217905560405185815289918816907fa71aae9c5dcd63ac47f172e5f4e7d9f6682bcb16d365a35e3ff0977b7a0ad7729060200160405180910390a350939695505050505050565b5f81610e0b57505f919050565b60025463ffffffff16805b63ffffffff81165f908152600160205260409020548403610e3b575060019392505050565b8063ffffffff165f03610e4c5750601e5b80610e56816115b6565b9150508163ffffffff168163ffffffff1603610e1657505f9392505050565b66038d7ea4c680003414610e9c5760405163fe9ba5cd60e01b815260040160405180910390fd5b5f8181526004602052604090205460ff1615610ecb5760405163721d2c7d60e11b815260040160405180910390fd5b5f610ed582610b8f565b5f838152600460205260408120805460ff191660011790556006805492935090610efe83611384565b90915550506040805163ffffffff83168152426020820152339184917f9cf4fd51b1f9ca63da33b474c6efe62e39eb8978697ba78fd64750558dfd29a3910160405180910390a35050565b604051631c5f941760e11b815260048101829052602481018290525f907f00000000000000000000000000000000000000000000000000000000000000006001600160a01b0316906338bf282e90604401602060405180830381865afa158015610fb5573d5f803e3d5ffd5b505050506040513d601f19601f82011682018060405250810190610b89919061139c565b6005546001600160a01b0316331461102c5760405162461bcd60e51b815260206004820152601260248201527127b7363c903332b29031b7b63632b1ba37b960711b604482015260640160405180910390fd5b600580546001600160a01b0319166001600160a01b0392909216919091179055565b5f815f0361107d57507f0d823319708ab99ec915efd4f7e03d11ca1790918e8f04cd14100aceca2aa9ff919050565b816001036110ac57507f2fe54c60d3acabf3343a35b6eba15db4821b340f76e741e2249685ed4899af6c919050565b816002036110db57507f256a6135777eee2fd26f54b8b7037a25439d5235caee224154186d2b8a52e31d919050565b8160030361110a57507f1151949895e82ab19924de92c40a3d6f7bcb60d92b00504b8199613683f0c200919050565b8160040361113957507f20121ee811489ff8d61f09fb89e313f14959a0f28bb428a20dba6b0b068b3bdb919050565b8160050361116857507f0a89ca6ffa14cc462cfedb842c30ed221a50a3d6bf022a6a57dc82ab24c157c9919050565b8160060361119757507f24ca05c2b5cd42e890d6be94c68d0689f4f21c9cec9c0f13fe41d566dfb54959919050565b816007036111c657507f1ccb97c932565a92c60156bdba2d08f3bf1377464e025cee765679e604a7315c919050565b816008036111f557507f19156fbd7d1a8bf5cba8909367de1b624534ebab4f0f79e003bccdd1b182bdb4919050565b8160090361122457507f261af8c1f0912e465744641409f622d466c3920ac6e5ff37e36604cb11dfff80919050565b81600a0361125257507e58459724ff6ca5a1652fcbc3e82b93895cf08e975b19beab3f54c217d1c007919050565b604051634e23d03560e01b815260040160405180910390fd5b5f6020828403121561127b575f80fd5b5035919050565b6001600160a01b0381168114611296575f80fd5b50565b5f805f805f60a086880312156112ad575f80fd5b8535945060208601356112bf81611282565b93506040860135925060608601356112d681611282565b949793965091946080013592915050565b5f805f80608085870312156112fa575f80fd5b84359350602085013561130c81611282565b925060408501359150606085013561132381611282565b939692955090935050565b5f806040838503121561133f575f80fd5b50508035926020909101359150565b5f6020828403121561135e575f80fd5b813561136981611282565b9392505050565b634e487b7160e01b5f52601160045260245ffd5b5f6001820161139557611395611370565b5060010190565b5f602082840312156113ac575f80fd5b5051919050565b5f602082840312156113c3575f80fd5b81518015158114611369575f80fd5b81810381811115610b8957610b89611370565b634e487b7160e01b5f52601260045260245ffd5b5f82611407576114076113e5565b500490565b8082028115828204841417610b8957610b89611370565b600181815b80851115611460578163ffffffff0482111561144657611446611370565b8085161561145357918102915b93841c9390800290611428565b509250929050565b5f8261147657506001610b89565b8161148257505f610b89565b816001811461149857600281146114a2576114d3565b6001915050610b89565b60ff8411156114b3576114b3611370565b6001841b915063ffffffff8211156114cd576114cd611370565b50610b89565b5060208310610133831016604e8410600b841016171561150a575081810a63ffffffff81111561150557611505611370565b610b89565b6115148383611423565b8063ffffffff0482111561152a5761152a611370565b029392505050565b5f63ffffffff611546818516828516611468565b949350505050565b5f63ffffffff80841680611564576115646113e5565b92169190910692915050565b5f63ffffffff80841680611586576115866113e5565b92169190910492915050565b63ffffffff8181168382160190808211156115af576115af611370565b5092915050565b5f63ffffffff8216806115cb576115cb611370565b5f19019291505056fea2646970667358221220ec5d528fef92427bd15663b975dc07742eb0d0e97456d9ebdbe517b601c3e62264736f6c63430008180033",
  "linkReferences": {},
  "deployedLinkReferences": {},
  "immutableReferences": {
    "1459": [
      {
        "length": 32,
        "start": 614
      },
      {
        "length": 32,
        "start": 2837
      },
      {
        "length": 32,
        "start": 3252
      },
      {
        "length": 32,
        "start": 3944
      }
    ],
    "1461": [
      {
        "length": 32,
        "start": 897
      },
      {
        "length": 32,
        "start": 2987
      },
      {
        "length": 32,
        "start": 3075
      }
    ]
  },
  "inputSourceName": "project/contracts/AnonymousPool.sol",
  "buildInfoId": "solc-0_8_24-e2dc05800cdedea2718a040c9dbb169e6e0429ff"
}